{
  "_format": "hh-sol-artifact-1",
  "contractName": "MonopolyGame",
  "sourceName": "contracts/MonopolyGame.sol",
  "abi": [
    {
      "inputs": [
        {
          "internalType": "address",
          "name": "_tokenAddress",
          "type": "address"
        }
      ],
      "stateMutability": "nonpayable",
      "type": "constructor"
    },
    {
      "anonymous": false,
      "inputs": [
        {
          "indexed": true,
          "internalType": "uint256",
          "name": "gameId",
          "type": "uint256"
        },
        {
          "indexed": true,
          "internalType": "address",
          "name": "player",
          "type": "address"
        },
        {
          "indexed": false,
          "internalType": "uint256",
          "name": "value",
          "type": "uint256"
        }
      ],
      "name": "DiceRolled",
      "type": "event"
    },
    {
      "anonymous": false,
      "inputs": [
        {
          "indexed": true,
          "internalType": "uint256",
          "name": "gameId",
          "type": "uint256"
        },
        {
          "indexed": true,
          "internalType": "address",
          "name": "creator",
          "type": "address"
        }
      ],
      "name": "GameCreated",
      "type": "event"
    },
    {
      "anonymous": false,
      "inputs": [
        {
          "indexed": true,
          "internalType": "uint256",
          "name": "gameId",
          "type": "uint256"
        },
        {
          "indexed": true,
          "internalType": "address",
          "name": "winner",
          "type": "address"
        }
      ],
      "name": "GameEnded",
      "type": "event"
    },
    {
      "anonymous": false,
      "inputs": [
        {
          "indexed": true,
          "internalType": "uint256",
          "name": "gameId",
          "type": "uint256"
        }
      ],
      "name": "GameStarted",
      "type": "event"
    },
    {
      "anonymous": false,
      "inputs": [
        {
          "indexed": true,
          "internalType": "uint256",
          "name": "gameId",
          "type": "uint256"
        },
        {
          "indexed": true,
          "internalType": "address",
          "name": "player",
          "type": "address"
        },
        {
          "indexed": false,
          "internalType": "enum MonopolyGame.PropertyCategory",
          "name": "category",
          "type": "uint8"
        }
      ],
      "name": "MonopolyAchieved",
      "type": "event"
    },
    {
      "anonymous": false,
      "inputs": [
        {
          "indexed": true,
          "internalType": "uint256",
          "name": "gameId",
          "type": "uint256"
        },
        {
          "indexed": true,
          "internalType": "address",
          "name": "player",
          "type": "address"
        }
      ],
      "name": "PlayerEliminated",
      "type": "event"
    },
    {
      "anonymous": false,
      "inputs": [
        {
          "indexed": true,
          "internalType": "uint256",
          "name": "gameId",
          "type": "uint256"
        },
        {
          "indexed": true,
          "internalType": "address",
          "name": "player",
          "type": "address"
        }
      ],
      "name": "PlayerJoined",
      "type": "event"
    },
    {
      "anonymous": false,
      "inputs": [
        {
          "indexed": true,
          "internalType": "uint256",
          "name": "gameId",
          "type": "uint256"
        },
        {
          "indexed": true,
          "internalType": "address",
          "name": "player",
          "type": "address"
        },
        {
          "indexed": false,
          "internalType": "uint256",
          "name": "propertyId",
          "type": "uint256"
        }
      ],
      "name": "PropertyBought",
      "type": "event"
    },
    {
      "anonymous": false,
      "inputs": [
        {
          "indexed": true,
          "internalType": "uint256",
          "name": "gameId",
          "type": "uint256"
        },
        {
          "indexed": true,
          "internalType": "address",
          "name": "from",
          "type": "address"
        },
        {
          "indexed": true,
          "internalType": "address",
          "name": "to",
          "type": "address"
        },
        {
          "indexed": false,
          "internalType": "uint256",
          "name": "amount",
          "type": "uint256"
        }
      ],
      "name": "RentPaid",
      "type": "event"
    },
    {
      "inputs": [],
      "name": "MAX_PLAYERS",
      "outputs": [
        {
          "internalType": "uint256",
          "name": "",
          "type": "uint256"
        }
      ],
      "stateMutability": "view",
      "type": "function"
    },
    {
      "inputs": [],
      "name": "STARTING_BALANCE",
      "outputs": [
        {
          "internalType": "uint256",
          "name": "",
          "type": "uint256"
        }
      ],
      "stateMutability": "view",
      "type": "function"
    },
    {
      "inputs": [],
      "name": "TOTAL_FIELDS",
      "outputs": [
        {
          "internalType": "uint256",
          "name": "",
          "type": "uint256"
        }
      ],
      "stateMutability": "view",
      "type": "function"
    },
    {
      "inputs": [],
      "name": "TOTAL_PROPERTIES",
      "outputs": [
        {
          "internalType": "uint256",
          "name": "",
          "type": "uint256"
        }
      ],
      "stateMutability": "view",
      "type": "function"
    },
    {
      "inputs": [
        {
          "internalType": "uint256",
          "name": "gameId",
          "type": "uint256"
        },
        {
          "internalType": "uint256",
          "name": "propertyId",
          "type": "uint256"
        }
      ],
      "name": "buyProperty",
      "outputs": [],
      "stateMutability": "nonpayable",
      "type": "function"
    },
    {
      "inputs": [],
      "name": "createGame",
      "outputs": [
        {
          "internalType": "uint256",
          "name": "",
          "type": "uint256"
        }
      ],
      "stateMutability": "nonpayable",
      "type": "function"
    },
    {
      "inputs": [
        {
          "internalType": "uint256",
          "name": "",
          "type": "uint256"
        }
      ],
      "name": "fieldToProperty",
      "outputs": [
        {
          "internalType": "uint256",
          "name": "",
          "type": "uint256"
        }
      ],
      "stateMutability": "view",
      "type": "function"
    },
    {
      "inputs": [],
      "name": "gameCounter",
      "outputs": [
        {
          "internalType": "uint256",
          "name": "",
          "type": "uint256"
        }
      ],
      "stateMutability": "view",
      "type": "function"
    },
    {
      "inputs": [
        {
          "internalType": "uint256",
          "name": "",
          "type": "uint256"
        }
      ],
      "name": "games",
      "outputs": [
        {
          "internalType": "uint256",
          "name": "id",
          "type": "uint256"
        },
        {
          "internalType": "uint256",
          "name": "currentPlayerIndex",
          "type": "uint256"
        },
        {
          "internalType": "enum MonopolyGame.GameStatus",
          "name": "status",
          "type": "uint8"
        },
        {
          "internalType": "uint256",
          "name": "createdAt",
          "type": "uint256"
        },
        {
          "internalType": "address",
          "name": "winner",
          "type": "address"
        }
      ],
      "stateMutability": "view",
      "type": "function"
    },
    {
      "inputs": [
        {
          "internalType": "uint256",
          "name": "gameId",
          "type": "uint256"
        }
      ],
      "name": "getGameInfo",
      "outputs": [
        {
          "internalType": "uint256",
          "name": "",
          "type": "uint256"
        },
        {
          "internalType": "address[]",
          "name": "",
          "type": "address[]"
        },
        {
          "internalType": "uint256",
          "name": "",
          "type": "uint256"
        },
        {
          "internalType": "enum MonopolyGame.GameStatus",
          "name": "",
          "type": "uint8"
        }
      ],
      "stateMutability": "view",
      "type": "function"
    },
    {
      "inputs": [
        {
          "internalType": "uint256",
          "name": "gameId",
          "type": "uint256"
        },
        {
          "internalType": "address",
          "name": "player",
          "type": "address"
        }
      ],
      "name": "getPlayer",
      "outputs": [
        {
          "internalType": "uint256",
          "name": "",
          "type": "uint256"
        },
        {
          "internalType": "uint256",
          "name": "",
          "type": "uint256"
        },
        {
          "internalType": "bool",
          "name": "",
          "type": "bool"
        },
        {
          "internalType": "uint256[]",
          "name": "",
          "type": "uint256[]"
        }
      ],
      "stateMutability": "view",
      "type": "function"
    },
    {
      "inputs": [
        {
          "internalType": "uint256",
          "name": "gameId",
          "type": "uint256"
        }
      ],
      "name": "joinGame",
      "outputs": [],
      "stateMutability": "nonpayable",
      "type": "function"
    },
    {
      "inputs": [
        {
          "internalType": "uint256",
          "name": "",
          "type": "uint256"
        }
      ],
      "name": "properties",
      "outputs": [
        {
          "internalType": "uint256",
          "name": "id",
          "type": "uint256"
        },
        {
          "internalType": "string",
          "name": "name",
          "type": "string"
        },
        {
          "internalType": "uint256",
          "name": "price",
          "type": "uint256"
        },
        {
          "internalType": "uint256",
          "name": "rent",
          "type": "uint256"
        },
        {
          "internalType": "enum MonopolyGame.PropertyCategory",
          "name": "category",
          "type": "uint8"
        },
        {
          "internalType": "address",
          "name": "owner",
          "type": "address"
        }
      ],
      "stateMutability": "view",
      "type": "function"
    },
    {
      "inputs": [
        {
          "internalType": "uint256",
          "name": "gameId",
          "type": "uint256"
        }
      ],
      "name": "rollDice",
      "outputs": [
        {
          "internalType": "uint256",
          "name": "",
          "type": "uint256"
        }
      ],
      "stateMutability": "nonpayable",
      "type": "function"
    },
    {
      "inputs": [
        {
          "internalType": "uint256",
          "name": "gameId",
          "type": "uint256"
        }
      ],
      "name": "startGame",
      "outputs": [],
      "stateMutability": "nonpayable",
      "type": "function"
    },
    {
      "inputs": [],
      "name": "token",
      "outputs": [
        {
          "internalType": "contract GameToken",
          "name": "",
          "type": "address"
        }
      ],
      "stateMutability": "view",
      "type": "function"
    }
  ],
  "bytecode": "0x60806040523480156200001157600080fd5b50604051620042913803806200429183398181016040528101906200003791906200131e565b806000806101000a81548173ffffffffffffffffffffffffffffffffffffffff021916908373ffffffffffffffffffffffffffffffffffffffff160217905550620000876200009e60201b60201c565b620000976200117b60201b60201c565b50620016e0565b6040518060c00160405280600081526020016040518060400160405280600781526020017f53616d73756e6700000000000000000000000000000000000000000000000000815250815260200168056bc75e2d631000008152602001678ac7230489e800008152602001600060028111156200011f576200011e62001350565b5b8152602001600073ffffffffffffffffffffffffffffffffffffffff1681525060026000808152602001908152602001600020600082015181600001556020820151816001019081620001739190620015f9565b50604082015181600201556060820151816003015560808201518160040160006101000a81548160ff02191690836002811115620001b657620001b562001350565b5b021790555060a08201518160040160016101000a81548173ffffffffffffffffffffffffffffffffffffffff021916908373ffffffffffffffffffffffffffffffffffffffff1602179055509050506040518060c00160405280600181526020016040518060400160405280600581526020017f4170706c65000000000000000000000000000000000000000000000000000000815250815260200168068155a43676e00000815260200167a688906bd8b0000081526020016000600281111562000286576200028562001350565b5b8152602001600073ffffffffffffffffffffffffffffffffffffffff168152506002600060018152602001908152602001600020600082015181600001556020820151816001019081620002db9190620015f9565b50604082015181600201556060820151816003015560808201518160040160006101000a81548160ff021916908360028111156200031e576200031d62001350565b5b021790555060a08201518160040160016101000a81548173ffffffffffffffffffffffffffffffffffffffff021916908373ffffffffffffffffffffffffffffffffffffffff1602179055509050506040518060c00160405280600281526020016040518060400160405280600481526020017f536f6e790000000000000000000000000000000000000000000000000000000081525081526020016805f68e8131ecf8000081526020016798a7d9b8314c0000815260200160006002811115620003ee57620003ed62001350565b5b8152602001600073ffffffffffffffffffffffffffffffffffffffff168152506002600060028152602001908152602001600020600082015181600001556020820151816001019081620004439190620015f9565b50604082015181600201556060820151816003015560808201518160040160006101000a81548160ff0219169083600281111562000486576200048562001350565b5b021790555060a08201518160040160016101000a81548173ffffffffffffffffffffffffffffffffffffffff021916908373ffffffffffffffffffffffffffffffffffffffff1602179055509050506040518060c00160405280600381526020016040518060400160405280600681526020017f476f6f676c650000000000000000000000000000000000000000000000000000815250815260200168070c1cc73b00c80000815260200167b469471f8014000081526020016000600281111562000556576200055562001350565b5b8152602001600073ffffffffffffffffffffffffffffffffffffffff168152506002600060038152602001908152602001600020600082015181600001556020820151816001019081620005ab9190620015f9565b50604082015181600201556060820151816003015560808201518160040160006101000a81548160ff02191690836002811115620005ee57620005ed62001350565b5b021790555060a08201518160040160016101000a81548173ffffffffffffffffffffffffffffffffffffffff021916908373ffffffffffffffffffffffffffffffffffffffff1602179055509050506040518060c00160405280600481526020016040518060400160405280600581526020017f5465736c610000000000000000000000000000000000000000000000000000008152508152602001680821ab0d4414980000815260200167d02ab486cedc0000815260200160016002811115620006be57620006bd62001350565b5b8152602001600073ffffffffffffffffffffffffffffffffffffffff168152506002600060048152602001908152602001600020600082015181600001556020820151816001019081620007139190620015f9565b50604082015181600201556060820151816003015560808201518160040160006101000a81548160ff0219169083600281111562000756576200075562001350565b5b021790555060a08201518160040160016101000a81548173ffffffffffffffffffffffffffffffffffffffff021916908373ffffffffffffffffffffffffffffffffffffffff1602179055509050506040518060c00160405280600581526020016040518060400160405280600381526020017f424d5700000000000000000000000000000000000000000000000000000000008152508152602001680796e3ea3f8ab00000815260200167c249fdd32778000081526020016001600281111562000826576200082562001350565b5b8152602001600073ffffffffffffffffffffffffffffffffffffffff1681525060026000600581526020019081526020016000206000820151816000015560208201518160010190816200087b9190620015f9565b50604082015181600201556060820151816003015560808201518160040160006101000a81548160ff02191690836002811115620008be57620008bd62001350565b5b021790555060a08201518160040160016101000a81548173ffffffffffffffffffffffffffffffffffffffff021916908373ffffffffffffffffffffffffffffffffffffffff1602179055509050506040518060c00160405280600681526020016040518060400160405280600681526020017f546f796f7461000000000000000000000000000000000000000000000000000081525081526020016807518058bd45bc0000815260200167b469471f801400008152602001600160028111156200098e576200098d62001350565b5b8152602001600073ffffffffffffffffffffffffffffffffffffffff168152506002600060068152602001908152602001600020600082015181600001556020820151816001019081620009e39190620015f9565b50604082015181600201556060820151816003015560808201518160040160006101000a81548160ff0219169083600281111562000a265762000a2562001350565b5b021790555060a08201518160040160016101000a81548173ffffffffffffffffffffffffffffffffffffffff021916908373ffffffffffffffffffffffffffffffffffffffff1602179055509050506040518060c00160405280600781526020016040518060400160405280600881526020017f4d6572636564657300000000000000000000000000000000000000000000000081525081526020016807dc477bc1cfa40000815260200167c249fdd32778000081526020016001600281111562000af65762000af562001350565b5b8152602001600073ffffffffffffffffffffffffffffffffffffffff16815250600260006007815260200190815260200160002060008201518160000155602082015181600101908162000b4b9190620015f9565b50604082015181600201556060820151816003015560808201518160040160006101000a81548160ff0219169083600281111562000b8e5762000b8d62001350565b5b021790555060a08201518160040160016101000a81548173ffffffffffffffffffffffffffffffffffffffff021916908373ffffffffffffffffffffffffffffffffffffffff1602179055509050506040518060c00160405280600881526020016040518060400160405280600681526020017f416d617a6f6e000000000000000000000000000000000000000000000000000081525081526020016808ac7230489e800000815260200167de0b6b3a76400000815260200160028081111562000c5d5762000c5c62001350565b5b8152602001600073ffffffffffffffffffffffffffffffffffffffff16815250600260006008815260200190815260200160002060008201518160000155602082015181600101908162000cb29190620015f9565b50604082015181600201556060820151816003015560808201518160040160006101000a81548160ff0219169083600281111562000cf55762000cf462001350565b5b021790555060a08201518160040160016101000a81548173ffffffffffffffffffffffffffffffffffffffff021916908373ffffffffffffffffffffffffffffffffffffffff1602179055509050506040518060c00160405280600981526020016040518060400160405280600781526020017f57616c6d617274000000000000000000000000000000000000000000000000008152508152602001680821ab0d4414980000815260200167d02ab486cedc0000815260200160028081111562000dc45762000dc362001350565b5b8152602001600073ffffffffffffffffffffffffffffffffffffffff16815250600260006009815260200190815260200160002060008201518160000155602082015181600101908162000e199190620015f9565b50604082015181600201556060820151816003015560808201518160040160006101000a81548160ff0219169083600281111562000e5c5762000e5b62001350565b5b021790555060a08201518160040160016101000a81548173ffffffffffffffffffffffffffffffffffffffff021916908373ffffffffffffffffffffffffffffffffffffffff1602179055509050506040518060c00160405280600a81526020016040518060400160405280600781526020017f416c69626162610000000000000000000000000000000000000000000000000081525081526020016808670e9ec6598c0000815260200167d02ab486cedc0000815260200160028081111562000f2b5762000f2a62001350565b5b8152602001600073ffffffffffffffffffffffffffffffffffffffff1681525060026000600a815260200190815260200160002060008201518160000155602082015181600101908162000f809190620015f9565b50604082015181600201556060820151816003015560808201518160040160006101000a81548160ff0219169083600281111562000fc35762000fc262001350565b5b021790555060a08201518160040160016101000a81548173ffffffffffffffffffffffffffffffffffffffff021916908373ffffffffffffffffffffffffffffffffffffffff1602179055509050506040518060c00160405280600b81526020016040518060400160405280600681526020017f546172676574000000000000000000000000000000000000000000000000000081525081526020016807dc477bc1cfa40000815260200167c249fdd327780000815260200160028081111562001092576200109162001350565b5b8152602001600073ffffffffffffffffffffffffffffffffffffffff1681525060026000600b8152602001908152602001600020600082015181600001556020820151816001019081620010e79190620015f9565b50604082015181600201556060820151816003015560808201518160040160006101000a81548160ff021916908360028111156200112a576200112962001350565b5b021790555060a08201518160040160016101000a81548173ffffffffffffffffffffffffffffffffffffffff021916908373ffffffffffffffffffffffffffffffffffffffff160217905550905050565b600060036000600181526020019081526020016000208190555060016003600060028152602001908152602001600020819055506002600360006003815260200190815260200160002081905550600380600060048152602001908152602001600020819055506004600360006006815260200190815260200160002081905550600560036000600781526020019081526020016000208190555060066003600060088152602001908152602001600020819055506007600360006009815260200190815260200160002081905550600860036000600b815260200190815260200160002081905550600960036000600c815260200190815260200160002081905550600a60036000600d815260200190815260200160002081905550600b60036000600e815260200190815260200160002081905550565b600080fd5b600073ffffffffffffffffffffffffffffffffffffffff82169050919050565b6000620012e682620012b9565b9050919050565b620012f881620012d9565b81146200130457600080fd5b50565b6000815190506200131881620012ed565b92915050565b600060208284031215620013375762001336620012b4565b5b6000620013478482850162001307565b91505092915050565b7f4e487b7100000000000000000000000000000000000000000000000000000000600052602160045260246000fd5b600081519050919050565b7f4e487b7100000000000000000000000000000000000000000000000000000000600052604160045260246000fd5b7f4e487b7100000000000000000000000000000000000000000000000000000000600052602260045260246000fd5b600060028204905060018216806200140157607f821691505b602082108103620014175762001416620013b9565b5b50919050565b60008190508160005260206000209050919050565b60006020601f8301049050919050565b600082821b905092915050565b600060088302620014817fffffffffffffffffffffffffffffffffffffffffffffffffffffffffffffffff8262001442565b6200148d868362001442565b95508019841693508086168417925050509392505050565b6000819050919050565b6000819050919050565b6000620014da620014d4620014ce84620014a5565b620014af565b620014a5565b9050919050565b6000819050919050565b620014f683620014b9565b6200150e6200150582620014e1565b8484546200144f565b825550505050565b600090565b6200152562001516565b62001532818484620014eb565b505050565b5b818110156200155a576200154e6000826200151b565b60018101905062001538565b5050565b601f821115620015a95762001573816200141d565b6200157e8462001432565b810160208510156200158e578190505b620015a66200159d8562001432565b83018262001537565b50505b505050565b600082821c905092915050565b6000620015ce60001984600802620015ae565b1980831691505092915050565b6000620015e98383620015bb565b9150826002028217905092915050565b62001604826200137f565b67ffffffffffffffff81111562001620576200161f6200138a565b5b6200162c8254620013e8565b620016398282856200155e565b600060209050601f8311600181146200167157600084156200165c578287015190505b620016688582620015db565b865550620016d8565b601f19841662001681866200141d565b60005b82811015620016ab5784890151825560018201915060208501945060208101905062001684565b86831015620016cb5784890151620016c7601f891682620015bb565b8355505b6001600288020188555050505b505050505050565b612ba180620016f06000396000f3fe608060405234801561001057600080fd5b50600436106101005760003560e01c80637c06cfab11610097578063efaa55a011610066578063efaa55a0146102cd578063f7b10808146102e9578063fc0c546a1461031e578063feca19d91461033c57610100565b80637c06cfab14610247578063a772c92714610265578063acfff37714610281578063e5ed1d59146102b157610100565b80634cf6c090116100d35780634cf6c090146101a85780636454e58d146101c6578063722dffa5146101f95780637255d7291461022957610100565b8063117a5b90146101055780632e0be39a146101395780634411b3eb1461015757806347e1d55014610175575b600080fd5b61011f600480360381019061011a9190611d72565b61035a565b604051610130959493929190611e66565b60405180910390f35b6101416103bd565b60405161014e9190611eb9565b60405180910390f35b61015f6103c3565b60405161016c9190611eb9565b60405180910390f35b61018f600480360381019061018a9190611d72565b6103c8565b60405161019f9493929190611f92565b60405180910390f35b6101b06104ce565b6040516101bd9190611eb9565b60405180910390f35b6101e060048036038101906101db919061200a565b6104d3565b6040516101f09493929190612123565b60405180910390f35b610213600480360381019061020e9190611d72565b6105b5565b6040516102209190611eb9565b60405180910390f35b6102316105cd565b60405161023e9190611eb9565b60405180910390f35b61024f6106a4565b60405161025c9190611eb9565b60405180910390f35b61027f600480360381019061027a919061216f565b6106a9565b005b61029b60048036038101906102969190611d72565b6109b8565b6040516102a89190611eb9565b60405180910390f35b6102cb60048036038101906102c69190611d72565b610c30565b005b6102e760048036038101906102e29190611d72565b610f05565b005b61030360048036038101906102fe9190611d72565b61107a565b60405161031596959493929190612287565b60405180910390f35b61032661116b565b604051610333919061234e565b60405180910390f35b61034461118f565b6040516103519190611eb9565b60405180910390f35b60016020528060005260406000206000915090508060000154908060030154908060040160009054906101000a900460ff16908060050154908060060160009054906101000a900473ffffffffffffffffffffffffffffffffffffffff16905085565b60045481565b600481565b6000606060008060016000868152602001908152602001600020600001546001600087815260200190815260200160002060010160016000888152602001908152602001600020600301546001600089815260200190815260200160002060040160009054906101000a900460ff16828054806020026020016040519081016040528092919081815260200182805480156104b857602002820191906000526020600020905b8160009054906101000a900473ffffffffffffffffffffffffffffffffffffffff1673ffffffffffffffffffffffffffffffffffffffff168152602001906001019080831161046e575b5050505050925093509350935093509193509193565b600c81565b6000806000606060006001600088815260200190815260200160002060020160008773ffffffffffffffffffffffffffffffffffffffff1673ffffffffffffffffffffffffffffffffffffffff1681526020019081526020016000209050806001015481600201548260030160009054906101000a900460ff16836004018080548060200260200160405190810160405280929190818152602001828054801561059c57602002820191906000526020600020905b815481526020019060010190808311610588575b5050505050905094509450945094505092959194509250565b60036020528060005260406000206000915090505481565b6000600460008154809291906105e290612398565b919050555060006004549050600060016000838152602001908152602001600020905081816000018190555060008160040160006101000a81548160ff0219169083600281111561063657610635611dae565b5b021790555042816005018190555060008160030181905550610658823361119c565b3373ffffffffffffffffffffffffffffffffffffffff16827fc3e0f84839dc888c892a013d10c8f9d6dc05a21a879d0ce468ca558013e9121c60405160405180910390a3819250505090565b601081565b600060016000848152602001908152602001600020905060008160020160003373ffffffffffffffffffffffffffffffffffffffff1673ffffffffffffffffffffffffffffffffffffffff16815260200190815260200160002090506000600260008581526020019081526020016000209050600160028111156107305761072f611dae565b5b8360040160009054906101000a900460ff16600281111561075457610753611dae565b5b14610794576040517f08c379a000000000000000000000000000000000000000000000000000000000815260040161078b9061242c565b60405180910390fd5b600073ffffffffffffffffffffffffffffffffffffffff168160040160019054906101000a900473ffffffffffffffffffffffffffffffffffffffff1673ffffffffffffffffffffffffffffffffffffffff1614610827576040517f08c379a000000000000000000000000000000000000000000000000000000000815260040161081e90612498565b60405180910390fd5b806002015482600101541015610872576040517f08c379a000000000000000000000000000000000000000000000000000000000815260040161086990612504565b60405180910390fd5b83600360008460020154815260200190815260200160002054146108cb576040517f08c379a00000000000000000000000000000000000000000000000000000000081526004016108c290612570565b60405180910390fd5b80600201548260010160008282546108e39190612590565b92505081905550338160040160016101000a81548173ffffffffffffffffffffffffffffffffffffffff021916908373ffffffffffffffffffffffffffffffffffffffff1602179055508160040184908060018154018082558091505060019003906000526020600020016000909190919091505561096285336112fd565b3373ffffffffffffffffffffffffffffffffffffffff16857f290f2083cde0be163feaae46ca85fea0ffc5f20ab98f90fcc19040a6f9a19255866040516109a99190611eb9565b60405180910390a35050505050565b600080600160008481526020019081526020016000209050600160028111156109e4576109e3611dae565b5b8160040160009054906101000a900460ff166002811115610a0857610a07611dae565b5b14610a48576040517f08c379a0000000000000000000000000000000000000000000000000000000008152600401610a3f9061242c565b60405180910390fd5b3373ffffffffffffffffffffffffffffffffffffffff1681600101826003015481548110610a7957610a786125c4565b5b9060005260206000200160009054906101000a900473ffffffffffffffffffffffffffffffffffffffff1673ffffffffffffffffffffffffffffffffffffffff1614610afa576040517f08c379a0000000000000000000000000000000000000000000000000000000008152600401610af19061263f565b60405180910390fd5b600060016006423360056000815480929190610b1590612398565b91905055604051602001610b2b939291906126c8565b6040516020818303038152906040528051906020012060001c610b4e9190612734565b610b589190612765565b905060008260020160003373ffffffffffffffffffffffffffffffffffffffff1673ffffffffffffffffffffffffffffffffffffffff16815260200190815260200160002090506010828260020154610bb19190612765565b610bbb9190612734565b81600201819055503373ffffffffffffffffffffffffffffffffffffffff16857fd2e5b7e86e0119aecac590ce5166e6c1b96b0d9b0a3e648c0ca46c90bdd587ba84604051610c0a9190611eb9565b60405180910390a3610c1c8533611427565b610c2585611696565b819350505050919050565b600060016000838152602001908152602001600020905060006002811115610c5b57610c5a611dae565b5b8160040160009054906101000a900460ff166002811115610c7f57610c7e611dae565b5b14610cbf576040517f08c379a0000000000000000000000000000000000000000000000000000000008152600401610cb6906127e5565b60405180910390fd5b600281600101805490501015610d0a576040517f08c379a0000000000000000000000000000000000000000000000000000000008152600401610d0190612851565b60405180910390fd5b610d148233611795565b610d53576040517f08c379a0000000000000000000000000000000000000000000000000000000008152600401610d4a906128bd565b60405180910390fd5b60018160040160006101000a81548160ff02191690836002811115610d7b57610d7a611dae565b5b021790555060005b8160010180549050811015610ed3576000826001018281548110610daa57610da96125c4565b5b9060005260206000200160009054906101000a900473ffffffffffffffffffffffffffffffffffffffff16905060008054906101000a900473ffffffffffffffffffffffffffffffffffffffff1673ffffffffffffffffffffffffffffffffffffffff166340c10f1982683635c9adc5dea000006040518363ffffffff1660e01b8152600401610e3b9291906128dd565b600060405180830381600087803b158015610e5557600080fd5b505af1158015610e69573d6000803e3d6000fd5b50505050683635c9adc5dea000008360020160008373ffffffffffffffffffffffffffffffffffffffff1673ffffffffffffffffffffffffffffffffffffffff16815260200190815260200160002060010181905550508080610ecb90612398565b915050610d83565b50817f50ad08f58a27f2851d7e3a1b3a6a46b290f2ce677e99642d30ff639721e7779060405160405180910390a25050565b600060016000838152602001908152602001600020905060006002811115610f3057610f2f611dae565b5b8160040160009054906101000a900460ff166002811115610f5457610f53611dae565b5b14610f94576040517f08c379a0000000000000000000000000000000000000000000000000000000008152600401610f8b90612952565b60405180910390fd5b6004816001018054905010610fde576040517f08c379a0000000000000000000000000000000000000000000000000000000008152600401610fd5906129be565b60405180910390fd5b610fe88233611795565b15611028576040517f08c379a000000000000000000000000000000000000000000000000000000000815260040161101f90612a2a565b60405180910390fd5b611032823361119c565b3373ffffffffffffffffffffffffffffffffffffffff16827f87969bc7faf902221a147b95ceba76e011c5efb0339a0a8ee7a2bb82d9cfbbd660405160405180910390a35050565b60026020528060005260406000206000915090508060000154908060010180546110a390612a79565b80601f01602080910402602001604051908101604052809291908181526020018280546110cf90612a79565b801561111c5780601f106110f15761010080835404028352916020019161111c565b820191906000526020600020905b8154815290600101906020018083116110ff57829003601f168201915b5050505050908060020154908060030154908060040160009054906101000a900460ff16908060040160019054906101000a900473ffffffffffffffffffffffffffffffffffffffff16905086565b60008054906101000a900473ffffffffffffffffffffffffffffffffffffffff1681565b683635c9adc5dea0000081565b600060016000848152602001908152602001600020905080600101829080600181540180825580915050600190039060005260206000200160009091909190916101000a81548173ffffffffffffffffffffffffffffffffffffffff021916908373ffffffffffffffffffffffffffffffffffffffff160217905550818160020160008473ffffffffffffffffffffffffffffffffffffffff1673ffffffffffffffffffffffffffffffffffffffff16815260200190815260200160002060000160006101000a81548173ffffffffffffffffffffffffffffffffffffffff021916908373ffffffffffffffffffffffffffffffffffffffff16021790555060018160020160008473ffffffffffffffffffffffffffffffffffffffff1673ffffffffffffffffffffffffffffffffffffffff16815260200190815260200160002060030160006101000a81548160ff021916908315150217905550505050565b6113098282600061185d565b1561135f578073ffffffffffffffffffffffffffffffffffffffff16827fd3ba354f0e56ce578e109cbffea4eb398936e86052577bcaef6818e9579b955160006040516113569190612aaa565b60405180910390a35b61136b8282600161185d565b156113c1578073ffffffffffffffffffffffffffffffffffffffff16827fd3ba354f0e56ce578e109cbffea4eb398936e86052577bcaef6818e9579b955160016040516113b89190612aaa565b60405180910390a35b6113cd8282600261185d565b15611423578073ffffffffffffffffffffffffffffffffffffffff16827fd3ba354f0e56ce578e109cbffea4eb398936e86052577bcaef6818e9579b9551600260405161141a9190612aaa565b60405180910390a35b5050565b60006001600084815260200190815260200160002060020160008373ffffffffffffffffffffffffffffffffffffffff1673ffffffffffffffffffffffffffffffffffffffff168152602001908152602001600020905060008160020154905060008114806114965750600a81145b156114a2575050611692565b60058114806114b15750600f81145b156115775760008054906101000a900473ffffffffffffffffffffffffffffffffffffffff1673ffffffffffffffffffffffffffffffffffffffff166340c10f19846802b5e3af16b18800006040518363ffffffff1660e01b815260040161151a929190612b00565b600060405180830381600087803b15801561153457600080fd5b505af1158015611548573d6000803e3d6000fd5b505050506802b5e3af16b18800008260010160008282546115699190612765565b925050819055505050611692565b6000600360008381526020019081526020016000205490506000600260008381526020019081526020016000209050600073ffffffffffffffffffffffffffffffffffffffff168160040160019054906101000a900473ffffffffffffffffffffffffffffffffffffffff1673ffffffffffffffffffffffffffffffffffffffff161415801561165757508473ffffffffffffffffffffffffffffffffffffffff168160040160019054906101000a900473ffffffffffffffffffffffffffffffffffffffff1673ffffffffffffffffffffffffffffffffffffffff1614155b1561168d5761168c86868360040160019054906101000a900473ffffffffffffffffffffffffffffffffffffffff16856119b4565b5b505050505b5050565b600060016000838152602001908152602001600020905060005b8160010180549050600183600301546116c99190612765565b6116d39190612734565b826003018190555080806116e690612398565b91505081600201600083600101846003015481548110611709576117086125c4565b5b9060005260206000200160009054906101000a900473ffffffffffffffffffffffffffffffffffffffff1673ffffffffffffffffffffffffffffffffffffffff1673ffffffffffffffffffffffffffffffffffffffff16815260200190815260200160002060030160009054906101000a900460ff1615801561178c5750600481105b6116b057505050565b60008060016000858152602001908152602001600020905060005b8160010180549050811015611850578373ffffffffffffffffffffffffffffffffffffffff168260010182815481106117ec576117eb6125c4565b5b9060005260206000200160009054906101000a900473ffffffffffffffffffffffffffffffffffffffff1673ffffffffffffffffffffffffffffffffffffffff160361183d57600192505050611857565b808061184890612398565b9150506117b0565b5060009150505b92915050565b6000806000905060006001600087815260200190815260200160002060020160008673ffffffffffffffffffffffffffffffffffffffff1673ffffffffffffffffffffffffffffffffffffffff16815260200190815260200160002060040180548060200260200160405190810160405280929190818152602001828054801561190657602002820191906000526020600020905b8154815260200190600101908083116118f2575b5050505050905060005b81518110156119a35784600281111561192c5761192b611dae565b5b60026000848481518110611943576119426125c4565b5b6020026020010151815260200190815260200160002060040160009054906101000a900460ff16600281111561197c5761197b611dae565b5b0361199057828061198c90612398565b9350505b808061199b90612398565b915050611910565b506004821015925050509392505050565b60006001600086815260200190815260200160002060020160008573ffffffffffffffffffffffffffffffffffffffff1673ffffffffffffffffffffffffffffffffffffffff168152602001908152602001600020905060006001600087815260200190815260200160002060020160008573ffffffffffffffffffffffffffffffffffffffff1673ffffffffffffffffffffffffffffffffffffffff1681526020019081526020016000209050600060026000858152602001908152602001600020600301549050611aab87866002600088815260200190815260200160002060040160009054906101000a900460ff1661185d565b15611ac057600281611abd9190612b29565b90505b80836001015410611b6c5780836001016000828254611adf9190612590565b9250508190555080826001016000828254611afa9190612765565b925050819055508473ffffffffffffffffffffffffffffffffffffffff168673ffffffffffffffffffffffffffffffffffffffff16887f5a1268366b022078977cedd857f45ed0fa9298dbc530d0faf77f70d07aa0a9b384604051611b5f9190611eb9565b60405180910390a4611b77565b611b768787611b80565b5b50505050505050565b600060016000848152602001908152602001600020905060008160020160008473ffffffffffffffffffffffffffffffffffffffff1673ffffffffffffffffffffffffffffffffffffffff168152602001908152602001600020905060008160030160006101000a81548160ff0219169083151502179055506000816001018190555060005b8160040180549050811015611c9e57600060026000846004018481548110611c3157611c306125c4565b5b9060005260206000200154815260200190815260200160002060040160016101000a81548173ffffffffffffffffffffffffffffffffffffffff021916908373ffffffffffffffffffffffffffffffffffffffff1602179055508080611c9690612398565b915050611c06565b50806004016000611caf9190611cf9565b8273ffffffffffffffffffffffffffffffffffffffff16847f638a014c19f58a705adfdf3c8350f6eecbcab57edc63f1112fef5828840730eb60405160405180910390a350505050565b5080546000825590600052602060002090810190611d179190611d1a565b50565b5b80821115611d33576000816000905550600101611d1b565b5090565b600080fd5b6000819050919050565b611d4f81611d3c565b8114611d5a57600080fd5b50565b600081359050611d6c81611d46565b92915050565b600060208284031215611d8857611d87611d37565b5b6000611d9684828501611d5d565b91505092915050565b611da881611d3c565b82525050565b7f4e487b7100000000000000000000000000000000000000000000000000000000600052602160045260246000fd5b60038110611dee57611ded611dae565b5b50565b6000819050611dff82611ddd565b919050565b6000611e0f82611df1565b9050919050565b611e1f81611e04565b82525050565b600073ffffffffffffffffffffffffffffffffffffffff82169050919050565b6000611e5082611e25565b9050919050565b611e6081611e45565b82525050565b600060a082019050611e7b6000830188611d9f565b611e886020830187611d9f565b611e956040830186611e16565b611ea26060830185611d9f565b611eaf6080830184611e57565b9695505050505050565b6000602082019050611ece6000830184611d9f565b92915050565b600081519050919050565b600082825260208201905092915050565b6000819050602082019050919050565b611f0981611e45565b82525050565b6000611f1b8383611f00565b60208301905092915050565b6000602082019050919050565b6000611f3f82611ed4565b611f498185611edf565b9350611f5483611ef0565b8060005b83811015611f85578151611f6c8882611f0f565b9750611f7783611f27565b925050600181019050611f58565b5085935050505092915050565b6000608082019050611fa76000830187611d9f565b8181036020830152611fb98186611f34565b9050611fc86040830185611d9f565b611fd56060830184611e16565b95945050505050565b611fe781611e45565b8114611ff257600080fd5b50565b60008135905061200481611fde565b92915050565b6000806040838503121561202157612020611d37565b5b600061202f85828601611d5d565b925050602061204085828601611ff5565b9150509250929050565b60008115159050919050565b61205f8161204a565b82525050565b600081519050919050565b600082825260208201905092915050565b6000819050602082019050919050565b61209a81611d3c565b82525050565b60006120ac8383612091565b60208301905092915050565b6000602082019050919050565b60006120d082612065565b6120da8185612070565b93506120e583612081565b8060005b838110156121165781516120fd88826120a0565b9750612108836120b8565b9250506001810190506120e9565b5085935050505092915050565b60006080820190506121386000830187611d9f565b6121456020830186611d9f565b6121526040830185612056565b818103606083015261216481846120c5565b905095945050505050565b6000806040838503121561218657612185611d37565b5b600061219485828601611d5d565b92505060206121a585828601611d5d565b9150509250929050565b600081519050919050565b600082825260208201905092915050565b60005b838110156121e95780820151818401526020810190506121ce565b60008484015250505050565b6000601f19601f8301169050919050565b6000612211826121af565b61221b81856121ba565b935061222b8185602086016121cb565b612234816121f5565b840191505092915050565b600381106122505761224f611dae565b5b50565b60008190506122618261223f565b919050565b600061227182612253565b9050919050565b61228181612266565b82525050565b600060c08201905061229c6000830189611d9f565b81810360208301526122ae8188612206565b90506122bd6040830187611d9f565b6122ca6060830186611d9f565b6122d76080830185612278565b6122e460a0830184611e57565b979650505050505050565b6000819050919050565b600061231461230f61230a84611e25565b6122ef565b611e25565b9050919050565b6000612326826122f9565b9050919050565b60006123388261231b565b9050919050565b6123488161232d565b82525050565b6000602082019050612363600083018461233f565b92915050565b7f4e487b7100000000000000000000000000000000000000000000000000000000600052601160045260246000fd5b60006123a382611d3c565b91507fffffffffffffffffffffffffffffffffffffffffffffffffffffffffffffffff82036123d5576123d4612369565b5b600182019050919050565b7f4e6f742061637469766500000000000000000000000000000000000000000000600082015250565b6000612416600a836121ba565b9150612421826123e0565b602082019050919050565b6000602082019050818103600083015261244581612409565b9050919050565b7f4f776e6564000000000000000000000000000000000000000000000000000000600082015250565b60006124826005836121ba565b915061248d8261244c565b602082019050919050565b600060208201905081810360008301526124b181612475565b9050919050565b7f4e6f2066756e6473000000000000000000000000000000000000000000000000600082015250565b60006124ee6008836121ba565b91506124f9826124b8565b602082019050919050565b6000602082019050818103600083015261251d816124e1565b9050919050565b7f57726f6e6720706f730000000000000000000000000000000000000000000000600082015250565b600061255a6009836121ba565b915061256582612524565b602082019050919050565b600060208201905081810360008301526125898161254d565b9050919050565b600061259b82611d3c565b91506125a683611d3c565b92508282039050818111156125be576125bd612369565b5b92915050565b7f4e487b7100000000000000000000000000000000000000000000000000000000600052603260045260246000fd5b7f4e6f74207475726e000000000000000000000000000000000000000000000000600082015250565b60006126296008836121ba565b9150612634826125f3565b602082019050919050565b600060208201905081810360008301526126588161261c565b9050919050565b6000819050919050565b61267a61267582611d3c565b61265f565b82525050565b60008160601b9050919050565b600061269882612680565b9050919050565b60006126aa8261268d565b9050919050565b6126c26126bd82611e45565b61269f565b82525050565b60006126d48286612669565b6020820191506126e482856126b1565b6014820191506126f48284612669565b602082019150819050949350505050565b7f4e487b7100000000000000000000000000000000000000000000000000000000600052601260045260246000fd5b600061273f82611d3c565b915061274a83611d3c565b92508261275a57612759612705565b5b828206905092915050565b600061277082611d3c565b915061277b83611d3c565b925082820190508082111561279357612792612369565b5b92915050565b7f5374617274656400000000000000000000000000000000000000000000000000600082015250565b60006127cf6007836121ba565b91506127da82612799565b602082019050919050565b600060208201905081810360008301526127fe816127c2565b9050919050565b7f4e65656420322b20706c61796572730000000000000000000000000000000000600082015250565b600061283b600f836121ba565b915061284682612805565b602082019050919050565b6000602082019050818103600083015261286a8161282e565b9050919050565b7f4e6f7420706c6179657200000000000000000000000000000000000000000000600082015250565b60006128a7600a836121ba565b91506128b282612871565b602082019050919050565b600060208201905081810360008301526128d68161289a565b9050919050565b60006040820190506128f26000830185611e57565b6128ff6020830184611d9f565b9392505050565b7f47616d6520737461727465640000000000000000000000000000000000000000600082015250565b600061293c600c836121ba565b915061294782612906565b602082019050919050565b6000602082019050818103600083015261296b8161292f565b9050919050565b7f46756c6c00000000000000000000000000000000000000000000000000000000600082015250565b60006129a86004836121ba565b91506129b382612972565b602082019050919050565b600060208201905081810360008301526129d78161299b565b9050919050565b7f4a6f696e65640000000000000000000000000000000000000000000000000000600082015250565b6000612a146006836121ba565b9150612a1f826129de565b602082019050919050565b60006020820190508181036000830152612a4381612a07565b9050919050565b7f4e487b7100000000000000000000000000000000000000000000000000000000600052602260045260246000fd5b60006002820490506001821680612a9157607f821691505b602082108103612aa457612aa3612a4a565b5b50919050565b6000602082019050612abf6000830184612278565b92915050565b6000819050919050565b6000612aea612ae5612ae084612ac5565b6122ef565b611d3c565b9050919050565b612afa81612acf565b82525050565b6000604082019050612b156000830185611e57565b612b226020830184612af1565b9392505050565b6000612b3482611d3c565b9150612b3f83611d3c565b9250828202612b4d81611d3c565b91508282048414831517612b6457612b63612369565b5b509291505056fea2646970667358221220c39653eec5736997a25d978406d9d1010cb032a28b4f4fbc7eecb854030151d664736f6c63430008140033",
  "linkReferences": {},
  "deployedLinkReferences": {}
}